{
  "_format": "hh-sol-artifact-1",
  "contractName": "ERC20",
  "sourceName": "contracts/ERC20.sol",
  "abi": [
    {
      "inputs": [
        {
          "internalType": "string",
          "name": "_name",
          "type": "string"
        },
        {
          "internalType": "string",
          "name": "_symbol",
          "type": "string"
        },
        {
          "internalType": "uint8",
          "name": "_decimals",
          "type": "uint8"
        },
        {
          "internalType": "uint256",
          "name": "_totalSupply",
          "type": "uint256"
        }
      ],
      "stateMutability": "nonpayable",
      "type": "constructor"
    },
    {
      "anonymous": false,
      "inputs": [
        {
          "indexed": true,
          "internalType": "address",
          "name": "_owner",
          "type": "address"
        },
        {
          "indexed": true,
          "internalType": "address",
          "name": "_spender",
          "type": "address"
        },
        {
          "indexed": false,
          "internalType": "uint256",
          "name": "_value",
          "type": "uint256"
        }
      ],
      "name": "Approval",
      "type": "event"
    },
    {
      "anonymous": false,
      "inputs": [
        {
          "indexed": true,
          "internalType": "address",
          "name": "from",
          "type": "address"
        },
        {
          "indexed": true,
          "internalType": "address",
          "name": "to",
          "type": "address"
        },
        {
          "indexed": false,
          "internalType": "uint256",
          "name": "value",
          "type": "uint256"
        }
      ],
      "name": "Transfer",
      "type": "event"
    },
    {
      "inputs": [
        {
          "internalType": "address",
          "name": "_owner",
          "type": "address"
        },
        {
          "internalType": "address",
          "name": "_spender",
          "type": "address"
        }
      ],
      "name": "allowance",
      "outputs": [
        {
          "internalType": "uint256",
          "name": "remaining",
          "type": "uint256"
        }
      ],
      "stateMutability": "view",
      "type": "function"
    },
    {
      "inputs": [
        {
          "internalType": "address",
          "name": "_spender",
          "type": "address"
        },
        {
          "internalType": "uint256",
          "name": "_value",
          "type": "uint256"
        }
      ],
      "name": "approve",
      "outputs": [
        {
          "internalType": "bool",
          "name": "success",
          "type": "bool"
        }
      ],
      "stateMutability": "nonpayable",
      "type": "function"
    },
    {
      "inputs": [
        {
          "internalType": "address",
          "name": "_owner",
          "type": "address"
        }
      ],
      "name": "balanceOf",
      "outputs": [
        {
          "internalType": "uint256",
          "name": "",
          "type": "uint256"
        }
      ],
      "stateMutability": "view",
      "type": "function"
    },
    {
      "inputs": [],
      "name": "decimals",
      "outputs": [
        {
          "internalType": "uint8",
          "name": "",
          "type": "uint8"
        }
      ],
      "stateMutability": "view",
      "type": "function"
    },
    {
      "inputs": [],
      "name": "name",
      "outputs": [
        {
          "internalType": "string",
          "name": "",
          "type": "string"
        }
      ],
      "stateMutability": "view",
      "type": "function"
    },
    {
      "inputs": [],
      "name": "symbol",
      "outputs": [
        {
          "internalType": "string",
          "name": "",
          "type": "string"
        }
      ],
      "stateMutability": "view",
      "type": "function"
    },
    {
      "inputs": [
        {
          "internalType": "address",
          "name": "",
          "type": "address"
        },
        {
          "internalType": "address",
          "name": "",
          "type": "address"
        }
      ],
      "name": "token_allowance",
      "outputs": [
        {
          "internalType": "uint256",
          "name": "",
          "type": "uint256"
        }
      ],
      "stateMutability": "view",
      "type": "function"
    },
    {
      "inputs": [
        {
          "internalType": "address",
          "name": "",
          "type": "address"
        }
      ],
      "name": "token_balanceOf",
      "outputs": [
        {
          "internalType": "uint256",
          "name": "",
          "type": "uint256"
        }
      ],
      "stateMutability": "view",
      "type": "function"
    },
    {
      "inputs": [],
      "name": "token_decimals",
      "outputs": [
        {
          "internalType": "uint8",
          "name": "",
          "type": "uint8"
        }
      ],
      "stateMutability": "view",
      "type": "function"
    },
    {
      "inputs": [],
      "name": "token_name",
      "outputs": [
        {
          "internalType": "string",
          "name": "",
          "type": "string"
        }
      ],
      "stateMutability": "view",
      "type": "function"
    },
    {
      "inputs": [],
      "name": "token_symbol",
      "outputs": [
        {
          "internalType": "string",
          "name": "",
          "type": "string"
        }
      ],
      "stateMutability": "view",
      "type": "function"
    },
    {
      "inputs": [],
      "name": "token_totalSupply",
      "outputs": [
        {
          "internalType": "uint256",
          "name": "",
          "type": "uint256"
        }
      ],
      "stateMutability": "view",
      "type": "function"
    },
    {
      "inputs": [],
      "name": "totalSupply",
      "outputs": [
        {
          "internalType": "uint256",
          "name": "",
          "type": "uint256"
        }
      ],
      "stateMutability": "view",
      "type": "function"
    },
    {
      "inputs": [
        {
          "internalType": "address",
          "name": "to",
          "type": "address"
        },
        {
          "internalType": "uint256",
          "name": "value",
          "type": "uint256"
        }
      ],
      "name": "transfer",
      "outputs": [
        {
          "internalType": "bool",
          "name": "",
          "type": "bool"
        }
      ],
      "stateMutability": "nonpayable",
      "type": "function"
    },
    {
      "inputs": [
        {
          "internalType": "address",
          "name": "_from",
          "type": "address"
        },
        {
          "internalType": "address",
          "name": "_to",
          "type": "address"
        },
        {
          "internalType": "uint256",
          "name": "_value",
          "type": "uint256"
        }
      ],
      "name": "transferFrom",
      "outputs": [
        {
          "internalType": "bool",
          "name": "success",
          "type": "bool"
        }
      ],
      "stateMutability": "nonpayable",
      "type": "function"
    }
  ],
  "bytecode": "0x608060405234801561001057600080fd5b50604051611767380380611767833981810160405281019061003291906102a5565b8360009081610041919061055b565b508260019081610051919061055b565b5081600260006101000a81548160ff021916908360ff1602179055508060038190555080600460003373ffffffffffffffffffffffffffffffffffffffff1673ffffffffffffffffffffffffffffffffffffffff168152602001908152602001600020819055505050505061062d565b6000604051905090565b600080fd5b600080fd5b600080fd5b600080fd5b6000601f19601f8301169050919050565b7f4e487b7100000000000000000000000000000000000000000000000000000000600052604160045260246000fd5b610128826100df565b810181811067ffffffffffffffff82111715610147576101466100f0565b5b80604052505050565b600061015a6100c1565b9050610166828261011f565b919050565b600067ffffffffffffffff821115610186576101856100f0565b5b61018f826100df565b9050602081019050919050565b60005b838110156101ba57808201518184015260208101905061019f565b60008484015250505050565b60006101d96101d48461016b565b610150565b9050828152602081018484840111156101f5576101f46100da565b5b61020084828561019c565b509392505050565b600082601f83011261021d5761021c6100d5565b5b815161022d8482602086016101c6565b91505092915050565b600060ff82169050919050565b61024c81610236565b811461025757600080fd5b50565b60008151905061026981610243565b92915050565b6000819050919050565b6102828161026f565b811461028d57600080fd5b50565b60008151905061029f81610279565b92915050565b600080600080608085870312156102bf576102be6100cb565b5b600085015167ffffffffffffffff8111156102dd576102dc6100d0565b5b6102e987828801610208565b945050602085015167ffffffffffffffff81111561030a576103096100d0565b5b61031687828801610208565b93505060406103278782880161025a565b925050606061033887828801610290565b91505092959194509250565b600081519050919050565b7f4e487b7100000000000000000000000000000000000000000000000000000000600052602260045260246000fd5b6000600282049050600182168061039657607f821691505b6020821081036103a9576103a861034f565b5b50919050565b60008190508160005260206000209050919050565b60006020601f8301049050919050565b600082821b905092915050565b6000600883026104117fffffffffffffffffffffffffffffffffffffffffffffffffffffffffffffffff826103d4565b61041b86836103d4565b95508019841693508086168417925050509392505050565b6000819050919050565b600061045861045361044e8461026f565b610433565b61026f565b9050919050565b6000819050919050565b6104728361043d565b61048661047e8261045f565b8484546103e1565b825550505050565b600090565b61049b61048e565b6104a6818484610469565b505050565b5b818110156104ca576104bf600082610493565b6001810190506104ac565b5050565b601f82111561050f576104e0816103af565b6104e9846103c4565b810160208510156104f8578190505b61050c610504856103c4565b8301826104ab565b50505b505050565b600082821c905092915050565b600061053260001984600802610514565b1980831691505092915050565b600061054b8383610521565b9150826002028217905092915050565b61056482610344565b67ffffffffffffffff81111561057d5761057c6100f0565b5b610587825461037e565b6105928282856104ce565b600060209050601f8311600181146105c557600084156105b3578287015190505b6105bd858261053f565b865550610625565b601f1984166105d3866103af565b60005b828110156105fb578489015182556001820191506020850194506020810190506105d6565b868310156106185784890151610614601f891682610521565b8355505b6001600288020188555050505b505050505050565b61112b8061063c6000396000f3fe608060405234801561001057600080fd5b50600436106100f55760003560e01c80634d2d0a3d11610097578063947a316811610066578063947a31681461029e57806395d89b41146102bc578063a9059cbb146102da578063dd62ed3e1461030a576100f5565b80634d2d0a3d146101f05780636b4a8b781461020e57806370a082311461023e578063728addbc1461026e576100f5565b80631f772a34116100d35780631f772a341461016657806323b872dd14610184578063313ce567146101b45780633c4b303d146101d2576100f5565b806306fdde03146100fa578063095ea7b31461011857806318160ddd14610148575b600080fd5b61010261033a565b60405161010f9190610cd4565b60405180910390f35b610132600480360381019061012d9190610d8f565b6103cc565b60405161013f9190610dea565b60405180910390f35b6101506104be565b60405161015d9190610e14565b60405180910390f35b61016e6104c8565b60405161017b9190610cd4565b60405180910390f35b61019e60048036038101906101999190610e2f565b610556565b6040516101ab9190610dea565b60405180910390f35b6101bc610848565b6040516101c99190610e9e565b60405180910390f35b6101da61085f565b6040516101e79190610e9e565b60405180910390f35b6101f8610872565b6040516102059190610e14565b60405180910390f35b61022860048036038101906102239190610eb9565b610878565b6040516102359190610e14565b60405180910390f35b61025860048036038101906102539190610ef9565b61089d565b6040516102659190610e14565b60405180910390f35b61028860048036038101906102839190610ef9565b6108e6565b6040516102959190610e14565b60405180910390f35b6102a66108fe565b6040516102b39190610cd4565b60405180910390f35b6102c461098c565b6040516102d19190610cd4565b60405180910390f35b6102f460048036038101906102ef9190610d8f565b610a1e565b6040516103019190610dea565b60405180910390f35b610324600480360381019061031f9190610eb9565b610bbd565b6040516103319190610e14565b60405180910390f35b60606000805461034990610f55565b80601f016020809104026020016040519081016040528092919081815260200182805461037590610f55565b80156103c25780601f10610397576101008083540402835291602001916103c2565b820191906000526020600020905b8154815290600101906020018083116103a557829003601f168201915b5050505050905090565b600081600560003373ffffffffffffffffffffffffffffffffffffffff1673ffffffffffffffffffffffffffffffffffffffff16815260200190815260200160002060008573ffffffffffffffffffffffffffffffffffffffff1673ffffffffffffffffffffffffffffffffffffffff168152602001908152602001600020819055508273ffffffffffffffffffffffffffffffffffffffff163373ffffffffffffffffffffffffffffffffffffffff167f8c5be1e5ebec7d5bd14f71427d1e84f3dd0314c0f7b2291e5b200ac8c7c3b925846040516104ac9190610e14565b60405180910390a36001905092915050565b6000600354905090565b600180546104d590610f55565b80601f016020809104026020016040519081016040528092919081815260200182805461050190610f55565b801561054e5780601f106105235761010080835404028352916020019161054e565b820191906000526020600020905b81548152906001019060200180831161053157829003601f168201915b505050505081565b6000600460008573ffffffffffffffffffffffffffffffffffffffff1673ffffffffffffffffffffffffffffffffffffffff168152602001908152602001600020548211156105da576040517f08c379a00000000000000000000000000000000000000000000000000000000081526004016105d190610fd2565b60405180910390fd5b600560008573ffffffffffffffffffffffffffffffffffffffff1673ffffffffffffffffffffffffffffffffffffffff16815260200190815260200160002060003373ffffffffffffffffffffffffffffffffffffffff1673ffffffffffffffffffffffffffffffffffffffff16815260200190815260200160002054821115610699576040517f08c379a00000000000000000000000000000000000000000000000000000000081526004016106909061103e565b60405180910390fd5b81600460008673ffffffffffffffffffffffffffffffffffffffff1673ffffffffffffffffffffffffffffffffffffffff16815260200190815260200160002060008282546106e8919061108d565b9250508190555081600460008573ffffffffffffffffffffffffffffffffffffffff1673ffffffffffffffffffffffffffffffffffffffff168152602001908152602001600020600082825461073e91906110c1565b9250508190555081600560008673ffffffffffffffffffffffffffffffffffffffff1673ffffffffffffffffffffffffffffffffffffffff16815260200190815260200160002060003373ffffffffffffffffffffffffffffffffffffffff1673ffffffffffffffffffffffffffffffffffffffff16815260200190815260200160002060008282546107d1919061108d565b925050819055508273ffffffffffffffffffffffffffffffffffffffff168473ffffffffffffffffffffffffffffffffffffffff167fddf252ad1be2c89b69c2b068fc378daa952ba7f163c4a11628f55a4df523b3ef846040516108359190610e14565b60405180910390a3600190509392505050565b6000600260009054906101000a900460ff16905090565b600260009054906101000a900460ff1681565b60035481565b6005602052816000526040600020602052806000526040600020600091509150505481565b6000600460008373ffffffffffffffffffffffffffffffffffffffff1673ffffffffffffffffffffffffffffffffffffffff168152602001908152602001600020549050919050565b60046020528060005260406000206000915090505481565b6000805461090b90610f55565b80601f016020809104026020016040519081016040528092919081815260200182805461093790610f55565b80156109845780601f1061095957610100808354040283529160200191610984565b820191906000526020600020905b81548152906001019060200180831161096757829003601f168201915b505050505081565b60606001805461099b90610f55565b80601f01602080910402602001604051908101604052809291908181526020018280546109c790610f55565b8015610a145780601f106109e957610100808354040283529160200191610a14565b820191906000526020600020905b8154815290600101906020018083116109f757829003601f168201915b5050505050905090565b600081600460003373ffffffffffffffffffffffffffffffffffffffff1673ffffffffffffffffffffffffffffffffffffffff168152602001908152602001600020541015610aa2576040517f08c379a0000000000000000000000000000000000000000000000000000000008152600401610a9990610fd2565b60405180910390fd5b81600460003373ffffffffffffffffffffffffffffffffffffffff1673ffffffffffffffffffffffffffffffffffffffff1681526020019081526020016000206000828254610af1919061108d565b9250508190555081600460008573ffffffffffffffffffffffffffffffffffffffff1673ffffffffffffffffffffffffffffffffffffffff1681526020019081526020016000206000828254610b4791906110c1565b925050819055508273ffffffffffffffffffffffffffffffffffffffff163373ffffffffffffffffffffffffffffffffffffffff167fddf252ad1be2c89b69c2b068fc378daa952ba7f163c4a11628f55a4df523b3ef84604051610bab9190610e14565b60405180910390a36001905092915050565b6000600560008473ffffffffffffffffffffffffffffffffffffffff1673ffffffffffffffffffffffffffffffffffffffff16815260200190815260200160002060008373ffffffffffffffffffffffffffffffffffffffff1673ffffffffffffffffffffffffffffffffffffffff16815260200190815260200160002054905092915050565b600081519050919050565b600082825260208201905092915050565b60005b83811015610c7e578082015181840152602081019050610c63565b60008484015250505050565b6000601f19601f8301169050919050565b6000610ca682610c44565b610cb08185610c4f565b9350610cc0818560208601610c60565b610cc981610c8a565b840191505092915050565b60006020820190508181036000830152610cee8184610c9b565b905092915050565b600080fd5b600073ffffffffffffffffffffffffffffffffffffffff82169050919050565b6000610d2682610cfb565b9050919050565b610d3681610d1b565b8114610d4157600080fd5b50565b600081359050610d5381610d2d565b92915050565b6000819050919050565b610d6c81610d59565b8114610d7757600080fd5b50565b600081359050610d8981610d63565b92915050565b60008060408385031215610da657610da5610cf6565b5b6000610db485828601610d44565b9250506020610dc585828601610d7a565b9150509250929050565b60008115159050919050565b610de481610dcf565b82525050565b6000602082019050610dff6000830184610ddb565b92915050565b610e0e81610d59565b82525050565b6000602082019050610e296000830184610e05565b92915050565b600080600060608486031215610e4857610e47610cf6565b5b6000610e5686828701610d44565b9350506020610e6786828701610d44565b9250506040610e7886828701610d7a565b9150509250925092565b600060ff82169050919050565b610e9881610e82565b82525050565b6000602082019050610eb36000830184610e8f565b92915050565b60008060408385031215610ed057610ecf610cf6565b5b6000610ede85828601610d44565b9250506020610eef85828601610d44565b9150509250929050565b600060208284031215610f0f57610f0e610cf6565b5b6000610f1d84828501610d44565b91505092915050565b7f4e487b7100000000000000000000000000000000000000000000000000000000600052602260045260246000fd5b60006002820490506001821680610f6d57607f821691505b602082108103610f8057610f7f610f26565b5b50919050565b7f496e73756666696369656e742062616c616e6365000000000000000000000000600082015250565b6000610fbc601483610c4f565b9150610fc782610f86565b602082019050919050565b60006020820190508181036000830152610feb81610faf565b9050919050565b7f496e73756666696369656e7420616c6c6f77616e636500000000000000000000600082015250565b6000611028601683610c4f565b915061103382610ff2565b602082019050919050565b600060208201905081810360008301526110578161101b565b9050919050565b7f4e487b7100000000000000000000000000000000000000000000000000000000600052601160045260246000fd5b600061109882610d59565b91506110a383610d59565b92508282039050818111156110bb576110ba61105e565b5b92915050565b60006110cc82610d59565b91506110d783610d59565b92508282019050808211156110ef576110ee61105e565b5b9291505056fea2646970667358221220e7aac146b33d88a5f76f5122876d67999a9841a864fc3139219cb9e5243e7da064736f6c634300081c0033",
  "linkReferences": {},
  "deployedLinkReferences": {}
}